:100000000C942A000C9447000C9447000C94470071
:100010000C9447000C9447000C9447000C94470044
:100020000C9447000C9447000C9447000C948400F7
:100030000C94AE000C9447000C9447000C944700BD
:100040000C9447000C9447000C9447000C94470014
:100050000C94470011241FBECFE5D4E0DEBFCDBF16
:1000600010E0A0E6B0E0E8EBF2E002C005900D92EF
:10007000AA3CB107D9F711E0AAECB0E001C01D928B
:10008000AF30B107E1F70E9468000C945A010C945C
:100090000000AF9A0895AF980895AF9B02C0AF9843
:1000A0000895AF9A0895AE9A0895AE980895AE9BBC
:1000B00002C0AE980895AE9A089580B38295869551
:1000C0008695837080958170089580B380740895BB
:1000D000A69AA79A969A789460E072EC81E090E0F4
:1000E0000E94D300AF9A80E690E00E942B0185EA3F
:1000F00090E00E942B010E94FC008F3F910509F0C7
:10010000D4F70E941901F7CF1F920F920FB60F92EA
:1001100011242F938F939F93EF93FF939BB12CB157
:10012000E0910C01EF5FEF7180910D01E81711F480
:1001300082E008C0892F8871E0930C01F0E0E6515D
:10014000FF4F208380930E01FF91EF919F918F913C
:100150002F910F900FBE0F901F9018951F920F9226
:100160000FB60F9211248F939F93EF93FF9390916B
:100170000A0180910B01981761F0E0910B01EF5F8C
:10018000EF71E0930B01F0E0E653FF4F80818CB9F3
:1001900001C05598FF91EF919F918F910F900FBEE5
:1001A0000F901F9018959B01AC0110920A011092BC
:1001B0000B0110920C0110920D0182E08BB963E0EB
:1001C000220F331F441F551F6A95D1F760E074E278
:1001D00084EF90E00E943801C901DA010197A1097A
:1001E000B109292F3A2F4B2F552720BD89B988E90E
:1001F0008AB986E880BD089590910C0180910D0127
:10020000981719F420E031E012C0E0910D01EF5F82
:10021000EF71E0930D01F0E0E651FF4F3081209146
:100220000E01922F80E0AC01430F511D9A01C901CC
:100230000895282F90910A019F5F9F7180910B0173
:100240009817E1F3E92FF0E0E653FF4F20839093F6
:100250000A01559A0895CF93DF93EC0103C02196CC
:100260000E94190188818823D1F7DF91CF910895E9
:10027000A1E21A2EAA1BBB1BFD010DC0AA1FBB1FAA
:10028000EE1FFF1FA217B307E407F50720F0A21B1C
:10029000B30BE40BF50B661F771F881F991F1A9489
:1002A00069F760957095809590959B01AC01BD01B3
:0802B000CF010895F894FFCF7F
:1002B8000D0A0A53616D706C6520636F6465206D6B
:1002C80061646520627920526F626F6B6974732074
:1002D800496E64696120666F72205248494E4F200A
:1002E800726F626F7420636F6E74726F6C20626FCE
:1002F8006172642E000D0A0A566973697420557379
:10030800206174205757572E524F424F4B49545330
:0A0318002E434F2E494E2E20000008
:00000001FF
