:100000000C942A000C9434000C9434000C943400AA
:100010000C9434000C9434000C9434000C94340090
:100020000C9434000C9434000C9434000C94340080
:100030000C9434000C9434000C9434000C94340070
:100040000C9434000C9434000C9434000C94340060
:100050000C94340011241FBECFE5D4E0DEBFCDBF29
:100060000E9455000C94BA000C940000AF9A0895B9
:10007000AF980895AF9B02C0AF980895AF9A0895C6
:10008000AE9A0895AE980895AE9B02C0AE980895BA
:10009000AE9A089580B382958695869583708095F3
:1000A0008170089580B380740895A69AA79A969A4D
:1000B0007894AF9A81EA8FBD8AE08EBD1BBC1ABCD2
:1000C00019BC18BC8A9A8B9A8F9ABB9A8C9A8D9A73
:1000D0002FEF30E040E951E06FEA70E0929A939898
:1000E000C39A97983BBD2ABD39BD28BD80E593ECE6
:1000F000FA013197F1F70197D9F7929A9398C39A39
:1001000097987BBD6ABD79BD68BD80E593ECFA0127
:100110003197F1F70197D9F79298939AC398979AE4
:100120003BBD2ABD39BD28BD80E593ECFA0131976E
:10013000F1F70197D9F79298939AC398979A7BBD54
:100140006ABD79BD68BD80E593ECFA013197F1F79E
:100150000197D9F7929A939AC39A979A3BBD2ABD71
:1001600039BD28BD80E593ECFA013197F1F701978D
:08017000D9F7B4CFF894FFCFDA
:00000001FF
